CRSHP143500011220130507/
DH00864288788600458547          CO020001037892ALMACENES MAXIMO S.A.              (PEPE GANGA)                                                                                             CRA 106 N 15-25 INT 109            ZONA FRANCA BOGOTA                                                    11           CO N                                                                                                                                                                      0001037892ALMACENES MAXIMO S.A.                                                 CRA 106 N 15-25 INT 109            ZONA FRANCA BOGOTA                 11           CO                                                                                 90000000000000000                                                     /
DD0086428878000010A27748270         000480BA MAGIC ACCESSORY BABY AST             740683                             90423                              201305062013051700000000000000875328000002CA           /
DD0086428878000020A16948270         000480BA YUMMY TREAT BABY                     740684                             90423                              201305062013051700000000000001109078600002CA           /
DH00864288798600458547          CO020001037892ALMACENES MAXIMO S.A.              (PEPE GANGA)                                                                                             CRA 106 N 15-25 INT 109            ZONA FRANCA BOGOTA                                                    11           CO N                                                                                                                                                                      0001037892ALMACENES MAXIMO S.A.                                                 CRA 106 N 15-25 INT 109            ZONA FRANCA BOGOTA                 11           CO                                                                                 90000000000000000                                                     /
DD0086428879000010381531480         000480TON CHUCK MONSTER TRUCK                 643609                             90417                              201305062013051700000000000000873000000006CA           /
DD0086428879000020A0992E240         000120TON CHUCK LANZADOR                      740424                             90417                              201305062013051700000000000001398895200006CA           /
DD0086428879000030A29788270         000600TON CHU SPACE SLAM LAUNCHPAD            740690                             90417                              201305062013051700000000000001050044400003CA           /
DH00864288808600458547          CO020001037892ALMACENES MAXIMO S.A.              (PEPE GANGA)                                                                                             CRA 106 N 15-25 INT 109            ZONA FRANCA BOGOTA                                                    11           CO N                                                                                                                                                                      0001037892ALMACENES MAXIMO S.A.                                                 CRA 106 N 15-25 INT 109            ZONA FRANCA BOGOTA                 11           CO                                                                                 90000000000000000                                                     /
DD008642888000001036671000B         000240AVN EARTH MIGHTIEST HEROES AST          434914                             90416                              201305062013052400000000000002797790400012CA           /
DD0086428880000020395002211         000050AVN GAMMA GREEN SMASH FISTS             434918                             90416                              201305062013052400000000000001167511400002CA           /
DD0086428880000030377260000         000060AVN STARK TEK BATTLE VEHICLE AST        434919                             90416                              201305062013052400000000000001488319500003CA           /
DD0086428880000040366752210         000180AVN GAMMA STRIKE HULK                   434923                             90416                              201305062013052400000000000001926565500003CA           /
DH00864288818600458547          CO020001037892ALMACENES MAXIMO S.A.              (PEPE GANGA)                                                                                             CRA 106 N 15-25 INT 109            ZONA FRANCA BOGOTA                                                    11           CO N                                                                                                                                                                      0001037892ALMACENES MAXIMO S.A.                                                 CRA 106 N 15-25 INT 109            ZONA FRANCA BOGOTA                 11           CO                                                                                 90000000000000000                                                     /
DD008642888100001037975E24L         001200TRA SURTIDO DE LUJO                     419121                             90422                              201305062013051700000000000002098924800008CA           /
DD008642888100002037980E24F         001600TRA CYBERVERSE LEGION AST W4R4          419122                             90422                              201305062013051700000000000000696537600008CA           /
DD008642888100003037994E24C         001500TRA CYBERVERSE COMMANDER AST W4R4 12    422488                             90422                              201305062013051700000000000001048298400006CA           /
DD0086428881000040A21260970         001200TRA RESCUE BOT SINGLES AST              740292                             90422                              201305062013051700000000000001393075200016CA           /
DD0086428881000050330657006         000480TRA RESCUE BOTS AST                     740294                             90422                              201305062013051700000000000001400059200004CA           /
DD0086428881000060A16348270         001008TRA BOT SHOTS SINGLES AST               740678                             90422                              201305062013051700000000000001044806400012CA           /
DD0086428881000070A21117000         000240TRA BUMBLBEE RESCUE REPAIR STATION      740691                             90422                              201305062013051700000000000001867560400004CA           /
DH00864288828600458547          CO020001037892ALMACENES MAXIMO S.A.              (PEPE GANGA)                                                                                             CRA 106 N 15-25 INT 109            ZONA FRANCA BOGOTA                                                    11           CO N                                                                                                                                                                      0001037892ALMACENES MAXIMO S.A.                                                 CRA 106 N 15-25 INT 109            ZONA FRANCA BOGOTA                 11           CO                                                                                 90000000000000000                                                     /
DD0086428882000010213071480         000180NER N-STRIKE RAIDER CS-35               417889                             90420                              201305062013051700000000000001634973800002CA           /
DD0086428882000020343822210         000240NER VORTEX LUMITRON                     417895                             90420                              201305062013051700000000000001751839400002CA           /
DD0086428882000030322160770         000360NER VORTEX PRAXIS                       422672                             90420                              201305062013051700000000000001401242600002CA           /
DD0086428882000040213090770         000240NER NSTRIKE RECON CS-6                  642501                             90420                              201305062013051700000000000001751267100003CA           /
DD0086428882000050336872210         001800NER VORTEX AMMO REFILLS                 643588                             90420                              201305062013051700000000000000522403200006CA           /
DD0086428882000060322150770         000480NER VORTEX VIGILON                      643589                             90420                              201305062013051700000000000000992213000002CA           /
DD008642888200007033692E240         000800SOA MICRO BURST                         643590                             90420                              201305062013051700000000000000582000000004CA           /
DD0086428882000080336932211         000240NER SOA ELECTROSTORM                    643592                             90420                              201305062013051700000000000002332656000008CA           /
DD0086428882000090322140770         000600NER VORTEX PROTON                       643623                             90420                              201305062013051700000000000000641596800002CA           /
DD0086428882000100A02002210         000060NER NSTRIKE ELITE STRYFE BLASTER        740285                             90420                              201305062013051700000000000002335022800004CA           /
DD0086428882000110A1748E240         000240NER SOA ARCTIC SHOCK                    740296                             90420                              201305062013051700000000000001167511400002CA           /
DD0086428882000120381261480         000200NER DTG SNAP-FIRE 8                     740537                             90420                              201305062013051700000000000000758462400002CA           /
DD0086428882000130360332210         001200NER NSTRIKE ELITE STRONGARM BLASTER     740538                             90420                              201305062013051700000000000000874746000003CA           /
DD0086428882000140A03502270         003600NER NSTRIKE ELITE 12 DART REFILL        740673                             90420                              201305062013051700000000000000462806400008CA           /
DD0086428882000150986962210         000360NER NSTRIKE ELITE RETALIATOR BLASTER    740674                             90420                              201305062013051700000000000001926565500003CA           /
DD0086428882000160986972210         000340NER NSTRIKE ELITE RAMPAGE BLASTER       740675                             90420                              201305062013051700000000000001634973800002CA           /
DH00864288838600458547          CO020001037892ALMACENES MAXIMO S.A.              (PEPE GANGA)                                                                                             CRA 106 N 15-25 INT 109            ZONA FRANCA BOGOTA                                                    11           CO N                                                                                                                                                                      0001037892ALMACENES MAXIMO S.A.                                                 CRA 106 N 15-25 INT 109            ZONA FRANCA BOGOTA                 11           CO                                                                                 90000000000000000                                                     /
DD0086428883000010232070773         000480PLA MPH MINI ASST                       401901                             90421                              201305062013051700000000000001044806400012CA           /
DD008642888300002033664L000         000240SES MINI PLUSH PALS AST                 403115                             90421                              201305062013051700000000000002306931600012CA           /
DD0086428883000030384398270         000360PLA POPPIN PARK JUNGLE CLACKERS         421612                             90421                              201305062013051700000000000000627570600006CA           /
DD0086428883000040517864680         000180DOK DOKI GOLEADOR AST                   434380                             90421                              201305062013051700000000000002801340600006CA           /
DD0086428883000050050208274         001200PLA RUMBLIN ROLLERS ASST                642546                             90421                              201305062013051700000000000000605357600004CA           /
DD0086428883000060003225911         001200PLA FORM FITTER                         642547                             90421                              201305062013051700000000000000802869000006CA           /
DD0086428883000070362314680         000360DOK DOKI AND MUNDI BASIC PLUSH AST      643437                             90421                              201305062013051700000000000001924790400006CA           /
DD0086428883000080362304660         000210DOK DOKI AND MUNDI TALKING PLUSH AST    643438                             90421                              201305062013051700000000000002801340600006CA           /
DD0086428883000090372268270         000120PLA PP ELEFUN FLIP N CALL PHONE         643575                             90421                              201305062013051700000000000000815731200004CA           /
DD0086428883000100359094680         000120PLA GLOWORLD DANGLE N DELIGHT GYM       643603                             90421                              201305062013051700000000000001109078600002CA           /
DD0086428883000110276568272         000800PLA MR AND MRS POTATO HEAD AST          643606                             90421                              201305062013051700000000000000815731200004CA           /
DD0086428883000120399728270         000360PLA POPPIN PARK TUMBLE TOP              434312                             90421                              201305062013051700000000000000524731200002CA           /
DD0086428883000130399388270         000240PLA ROCK TIVITY WALK N ROLL RIDER BLUE  434313                             90421                              201305062013051700000000000002453052400002CA           /
DH00864288848600458547          CO020001037892ALMACENES MAXIMO S.A.              (PEPE GANGA)                                                                                             CRA 106 N 15-25 INT 109            ZONA FRANCA BOGOTA                                                    11           CO N                                                                                                                                                                      0001037892ALMACENES MAXIMO S.A.                                                 CRA 106 N 15-25 INT 109            ZONA FRANCA BOGOTA                 11           CO                                                                                 90000000000000000                                                     /
DD0086428884000010269128273         000600FRR WALKIN PUPPIES AST W2 12            402161                             90424                              201305062013051700000000000001284377000002CA           /
DD0086428884000020A05142210         000120FRR BOUNCY MY HAPPY TO SEE ME PUP       434875                             90424                              201305062013051700000000000001751839400002CA           /
DD008642888400003093717983C         000060FRR SNUGGIMALS AST WV3                  642517                             90424                              201305062013051700000000000001504062600006CA           /
DD0086428884000040A16478270         000480FRR FEED ME BABIES AST W1 13            740685                             90424                              201305062013051700000000000001633790400004CA           /
DH00864288858600458547          CO020001037892ALMACENES MAXIMO S.A.              (PEPE GANGA)                                                                                             CRA 106 N 15-25 INT 109            ZONA FRANCA BOGOTA                                                    11           CO N                                                                                                                                                                      0001037892ALMACENES MAXIMO S.A.                                                 CRA 106 N 15-25 INT 109            ZONA FRANCA BOGOTA                 11           CO                                                                                 90000000000000000                                                     /
DD0086428885000010249845910         001800MLP SINGLES ASST                        401877                             90426                              201305062013051700000000000000553947600012CA           /
DD008642888500002024985E246         000393MLP FASHION PONIES AST W1 13            401882                             90426                              201305062013051700000000000000874746000003CA           /
DD0086428885000030373678272         000120MLP DELUXE PONY AST                     643632                             90426                              201305062013051700000000000001631462400008CA           /
DD0086428885000040A13858270         000800MLP CRYSTAL DECO FASHION PONIES AST     740286                             90426                              201305062013051700000000000001283193600004CA           /
DD0086428885000050A23608270         000900MLP PONY AST W1 13                      740297                             90426                              201305062013051700000000000001114879200012CA           /
DD0086428885000060A20048270         001200MLP PRINCESS PACK AST W1 13             740298                             90426                              201305062013051700000000000002098924800008CA           /
DD0086428885000070A13845730         000360MLP CRYSTAL WALKING PINKIE PIE          740299                             90426                              201305062013051700000000000001575968700003CA           /
DH00864288868600458547          CO020001037892ALMACENES MAXIMO S.A.              (PEPE GANGA)                                                                                             CRA 106 N 15-25 INT 109            ZONA FRANCA BOGOTA                                                    11           CO N                                                                                                                                                                      0001037892ALMACENES MAXIMO S.A.                                                 CRA 106 N 15-25 INT 109            ZONA FRANCA BOGOTA                 11           CO                                                                                 90000000000000000                                                     /
DD0086428886000010058010671         001500GUESS WHO                               402173                             90425                              201305062013051700000000000001166328000004CA           /
DD0086428886000020316540670         000600CRANIUM BRAIN BREAKS                    402664                             90425                              201305062013051700000000000000885842800004CA           /
DD0086428886000030398455730         000480BATTLESHIP SERIES 1                     419125                             90425                              201305062013051700000000000000932596800004CA           /
DD0086428886000040668375734         000600TRAVEL CHILDREN MINI GAMES              419126                             90425                              201305062013051700000000000000582000000004CA           /
DD0086428886000050287205730         000240RISK                                    425071                             90425                              201305062013051700000000000001867560400004CA           /
DD0086428886000060988315730         001800TWISTER                                 434298                             90425                              201305062013051700000000000001574193600006CA           /
DD0086428886000070379495730         000120RUBIKS RACE                             434308                             90425                              201305062013051700000000000001749492000006CA           /
DD0086428886000080987795730         000480CONNECT FOUR GRID GAME                  434374                             90425                              201305062013051700000000000001002708400004CA           /
DD008642888600009007789L020         001200BOP IT                                  642514                             90425                              201305062013051700000000000001225342800003CA           /
DD0086428886000100169010670         000600MONOPOLY MODULAR                        642529                             90425                              201305062013051700000000000001398895200006CA           /
DD0086428886000110165775730         000420CRANIUM                                 642533                             90425                              201305062013051700000000000001516924800004CA           /
DD0086428886000120401980673         000600OPERATION                               642587                             90425                              201305062013051700000000000002450685600006CA           /
DD0086428886000130047930002         000120JENGA                                   642590                             90425                              201305062013051700000000000001504062600006CA           /
DD0086428886000140016101260         000900MONOPOLY NATIONAL                       643133                             90425                              201305062013051700000000000002450685600006CA           /
DD0086428886000150A20372210         000300TWISTER RAVE SKIP IT                    740412                             90425                              201305062013051700000000000001867560400004CA           /
DD0086428886000160A32642210         000600BATTLESHIP                              740543                             90425                              201305062013051700000000000001225342800003CA           /
DD0086428886000170A28455731         000240JENGA DEATH STAR                        740680                             90425                              201305062013051700000000000002452460700003CA           /
DD0086428886000180377125730         000600MONOPOLY ELECTRONIC BANKING             740681                             90425                              201305062013051700000000000001984426000004CA           /
DD0086428886000190A29805730         000801DRAW SOMETHING                          740682                             90425                              201305062013051700000000000001365604800003CA           /
DH00864288878600458547          CO020001037892ALMACENES MAXIMO S.A.              (PEPE GANGA)                                                                                             CRA 106 N 15-25 INT 109            ZONA FRANCA BOGOTA                                                    11           CO N                                                                                                                                                                      0001037892ALMACENES MAXIMO S.A.                                                 CRA 106 N 15-25 INT 109            ZONA FRANCA BOGOTA                 11           CO                                                                                 90000000000000000                                                     /
DD0086428887000010330817004         001200SH FIGURE 2 PACK AST                    740290                             90428                              201305062013051700000000000001164000000008CA           /
DD0086428887000020A39742210         001200SPD ULTIMATE SPIDERMAN ALLSTARHTTP://HDS740540                             90428                              201305062013051700000000000001114879200012CA           /
DH00864288888600458547          CO020001037892ALMACENES MAXIMO S.A.              (PEPE GANGA)                                                                                             CRA 106 N 15-25 INT 109            ZONA FRANCA BOGOTA                                                    11           CO N                                                                                                                                                                      0001037892ALMACENES MAXIMO S.A.                                                 CRA 106 N 15-25 INT 109            ZONA FRANCA BOGOTA                 11           CO                                                                                 90000000000000000                                                     /
DD0086428888000010227351865         000600PD MINI TOOLS ASST WV 6                 402169                             90427                              201305062013051700000000000000687225600024CA           /
DD0086428888000020494921481         000600PD VEHICULOS DIVERTIDOS CON PLASTILINA  434292                             90427                              201305062013051700000000000000452272200006CA           /
DD008642888800003022611186B         001512PD MINI FUN FACTORY                     642539                             90427                              201305062013051700000000000001030838400036CA           /
DD0086428888000040368135912         000240PD SWEET GADGETS AST                    643615                             90427                              201305062013051700000000000000522403200006CA           /
DD0086428888000050294131480         000600PD CASE OF COLORS                       643619                             90427                              201305062013051700000000000000557439600006CA           /
DD0086428888000060A03208270         000804PD FLIP N FROST COOKIES                 740287                             90427                              201305062013051700000000000000611798400003CA           /
DD008642888800007090020P30D         000600PD FUN FACTORY                          740288                             90427                              201305062013051700000000000000697701600006CA           /
DD0086428888000080235655730         001800PD 4 PLUS 2 CLASSIC COLOURS             740289                             90427                              201305062013051700000000000000509521600008CA           /
DD0086428888000090A12068270         000200PD PLUS VARIETY PACK                    740423                             90427                              201305062013051700000000000000371626400004CA           /
DD0086428888000100A18388270         001428PD ANIMAL ACTIVITIES AST                740686                             90427                              201305062013051700000000000000417235800006CA           /
DD0086428888000110493792250         000600PD DIGGIN RIGS TERRAIN DOH AST          740687                             90427                              201305062013051700000000000000173552400003CA           /
DD0086428888000120493770000         000801PD BACK TO SCHOOL CHALKBOARD            740688                             90427                              201305062013051700000000000000699447600003CA           /
DD0086428888000130238429421         001800PD SINGLE CAN ASSORTMENT 1              402142                             90427                              201305062013051700000000000000610052400036CA           /
DD0086428888000140494138270         000801PD DIGGIN RIGS PROJECTS STARTER AST     434381                             90427                              201305062013051700000000000000699447600003CA           /
DD0086428888000150373668270         000800PD DR DRILL N FILL                      643617                             90427                              201305062013051700000000000000583164000002CA           /
DH00864288898600458547          CO020001037892ALMACENES MAXIMO S.A.              (PEPE GANGA)                                                                                             CRA 106 N 15-25 INT 109            ZONA FRANCA BOGOTA                                                    11           CO N                                                                                                                                                                      0001037892ALMACENES MAXIMO S.A.                                                 CRA 106 N 15-25 INT 109            ZONA FRANCA BOGOTA                 11           CO                                                                                 90000000000000000                                                     /
DD0086428889000010333161481         000240LPS PET SHOP ANDARINAS                  403108                             90419                              201305062013051700000000000000697701600006CA           /
DD0086428889000020999608271         000400LPS TOTALLY TALENTED FAVORITE PETS AST  434310                             90419                              201305062013051700000000000000870672000010CA           /
DD0086428889000030A00571481         000480LPS PET SHOP  CON TRUCO                 434877                             90419                              201305062013051700000000000000697701600006CA           /
DD008642888900004093731591J         000600LPS GET THE PETS SINGLE B AST W1 13     642574                             90419                              201305062013051700000000000000553947600012CA           /
DD008642888900005093670827J         001200LPS GET THE PETS SINGLES A AST WV2 13   642575                             90419                              201305062013051700000000000000553947600012CA           /
DD0086428889000060936641484         000120PACK 3 PET SHOP                         642576                             90419                              201305062013051700000000000000873000000006CA           /
DH00864288908600458547          CO020001037892ALMACENES MAXIMO S.A.              (PEPE GANGA)                                                                                             CRA 106 N 15-25 INT 109            ZONA FRANCA BOGOTA                                                    11           CO N                                                                                                                                                                      0001037892ALMACENES MAXIMO S.A.                                                 CRA 106 N 15-25 INT 109            ZONA FRANCA BOGOTA                 11           CO                                                                                 90000000000000000                                                     /
DD0086428890000010A17098270         001200IM 12 INCH EC ACTION FIGURE             740426                             90418                              201305062013051700000000000001210715200008CA           /
DD0086428890000020A17145730         000180IM ARC FX MISSION MASK                  740672                             90418                              201305062013051700000000000001518108200002CA           /
TR1435000001300657680000100/
